:03010000C34A01EE
:10010B000305070B0D1113171D1F25292B2F353B2E
:10011B003D4347494F53596165676B6D717F8389C8
:10012B008B95979DA3A7ADB3B5BFC1C5C7D3DFE370
:0B013B00E5E9EFF1FB07000000000009
:10014A0016001E02CD170216001E03CD1702160056
:10015A001E05CD17023A40013242013A41013243AB
:10016A00013E0032450106353A4501B8CAA90121C6
:10017A000B014F591600197E473A40015F3A410177
:10018A0057CD5902B7CAA6017AB7C29C017BB8DA21
:10019A00A9013A45013C324501C37001C3B4013A91
:1001AA0040015F3A410157CD17023A4401B7CAD517
:1001BA00013E003244013A4001C604324001D2EC09
:1001CA00013A41013C324101C3EC013E0132440192
:1001DA003A4001C602324001D2EC013A41013C32B6
:1001EA0041013A4301473A4101B8DA0802C205021D
:1001FA003A4201473A4001B8DA0802C35F013E07B2
:10020A00324001AF324101324401C35F01E5C521E9
:10021A000A013E24772B3E0A772B3E0D772B224884
:10022A0001EB224601EB2A4601EB060ACD59022AC6
:10023A004801C630772B224801EB2246017CB5C221
:10024A0030022A480123EB0E09CD0500C1E1C9EBB2
:10025A00110000AF0E102917EB29EBB8DA6B0290E8
:06026A00130DC26002C981
:00000001FF
